:020000040800F2
:100000000020002069840008656200087162000811
:1000100000000000000000000000000000000000E0
:100020000000000000000000000000009D620008C9
:100030000000000000000000A7620008B162000894
:10004000B984000800000000B9840008B9840008E1
:10005000B9840008B9840008B9840008B98400088C
:1000600000000000BB620008B9840008B9840008E1
:10007000B9840008C5620008B984000800000000C7
:10008000B9840008B984000800000000B9840008A1
:10009000B9840008B9840008B9840008B98400084C
:1000A000B9840008B9840008B9840008B96400085C
:1000B000E5640008000000000000000000000000EF
:1000C00010B5064C2378002B07D1054B002B02D02E
:1000D000044800E000BF0123237010BD5800002039
:1000E0000000000090970008044B10B5002B03D0CF
:1000F0000349044800E000BF10BDC04600000000F6
:100100005C00002090970008002243088B4274D3C3
:1001100003098B425FD3030A8B4244D3030B8B4208
:1001200028D3030C8B420DD3FF22090212BA030C11
:100130008B4202D31212090265D0030B8B4219D3F2
:1001400000E0090AC30B8B4201D3CB03C01A524112
:10015000830B8B4201D38B03C01A5241430B8B425A
:1001600001D34B03C01A5241030B8B4201D30B0343
:10017000C01A5241C30A8B4201D3CB02C01A52416A
:10018000830A8B4201D38B02C01A5241430A8B422D
:1001900001D34B02C01A5241030A8B4201D30B0216
:1001A000C01A5241CDD2C3098B4201D3CB01C01A30
:1001B000524183098B4201D38B01C01A524143093A
:1001C0008B4201D34B01C01A524103098B4201D328
:1001D0000B01C01A5241C3088B4201D3CB00C01A95
:1001E000524183088B4201D38B00C01A524143080D
:1001F0008B4201D34B00C01A5241411A00D2014632
:10020000524110467047FFE701B5002000F006F8A4
:1002100002BDC0460029F7D076E770477047C04658
:10022000844608006146FFE71FB500F015FC002872
:1002300001D40021C8421FBD10B500F09DFB404213
:10024000013010BD10B500F007FC002801DB0020D4
:1002500010BD012010BDC04610B500F0FDFB002808
:1002600001DD002010BD012010BDC04610B500F01A
:10027000ABFB002801DC002010BD012010BDC046F2
:1002800010B500F0A1FB002801DA002010BD01200C
:1002900010BDC046F0B5CE469946030C9C461304EB
:1002A00047461B0C1D000E0061460404240C80B55B
:1002B0000700100C4B436543414360432C0CC018AE
:1002C00024188C46A34203D980235B029846C44479
:1002D000494679435643230C2D042D0C8919634458
:1002E00024046019C918C0BCB946B046F0BDC04668
:1002F0009E2110B5C905041CFFF7C2FF002803D1D9
:10030000201C00F0C5FF10BD9E21201CC90500F077
:1003100045FD00F0BDFF80231B069C466044F2E7CC
:100320008023D0B59B0304000800994201D36305E4
:1003300011D101F079FE00220A4B01F08FFB06007B
:100340000F00200001F070FE32003B0000F0C0FF03
:1003500001F08EFED0BDE30A8024DB0224011C43A1
:10036000E7E7C0460000F041F8B54B025A0A944650
:100370004A00C90FCE4647468946450046022D0E23
:10038000120E80B59909770AC40FB609AB1A4C450D
:1003900020D0002B0CDD002A34D100292AD05A1E8F
:1003A000012B00D18FE0FF2B00D1CDE013002FE017
:1003B000002B60D0531B002D00D0EEE0002E00D1AA
:1003C0003EE15C1E012B00D16BE1FF2B00D1B9E0B7
:1003D0002300E7E0002B00DCA4E0002A69D0FF2D19
:1003E00000D1B1E08022D20411431B2B00DCE9E0F4
:1003F0002B000536F708FF2B00D1A5E07A02520A40
:10040000D8B230E0FF2D00D19EE08022D20411430B
:1004100001201B2B08DC08002022D840D31A994069
:100420000B005A1E93411843361A730100D471E031
:10043000B601B709380001F09DFE3B000538834046
:1004400085424DDDB44E2D1A1E405A0768D00F224A
:100450001340042B64D00436730161D5681CFE2D53
:1004600054D1FF200022C0051043E4072043C0BC44
:10047000B946B046F8BDFE229046681C02004046D0
:1004800010426BD1002D00D0DDE0002E00D102E142
:100490000029B3D08022771AD204174200D136E166
:1004A0004C468E1B61D00120164230D10023F70844
:1004B000A4E700299ED05A1E012B00D1CAE0FF2BD1
:1004C00042D0130091E7711A4B0100D4D1E08F01A3
:1004D000BF09380001F04EFE3B000538834001257E
:1004E0002022401B0130121A1E009340C6405A1EA3
:1004F00093411E4339D0730700D11BE10F23002520
:100500003340042BA7D1012072017CD5C0B2B201C7
:10051000520AA8E7730703D00F233340042B9AD164
:100520002B0067E7002B23D0531B002D7BD1002E1F
:1005300000D186E05D1E012B00D18BE0FF2B02D0A5
:100540002B0075E04C466746002F00D189E78022DA
:10055000D2033A435202FF20520A84E7771A7B0102
:100560006BD4002F00D065E70024002000227AE73A
:10057000FE226B1C1A4249D1002D00D09FE0002EB4
:1005800000D1BAE0002900D1CFE07218530100D4A5
:10059000CDE092010120520A65E7FF2AD2D08020E7
:1005A000C004064301201B2B08DC30002024D84067
:1005B000E31A9E4033005C1EA34118434C461500CD
:1005C0000E1A32E708002022D840D31A99400B00B7
:1005D0005A1E93410343F61873019BD50135FF2D35
:1005E00000D13EE701234D49720833400A401A43C7
:1005F0001600530704D00F231340042B00D02AE722
:10060000730100D52AE72B00F708F7E6FF2B00D18E
:1006100027E7711849084A072FD00F220A40042AF9
:100620002BD00E1DE6E6FF2A8DD08020C0040643A5
:100630001B2B24DD13004E1DDCE64C468F1BF9E618
:100640004C460E00D6E6002E49D1002968D06746F8
:100650004C467CE77018430174D53049400801408E
:10066000430709D00F230340042B05D002230E1D9E
:10067000C0E60123CF08C1E60223CF08BEE620254D
:100680003000D840EB1A9E4033005D1EAB4103435F
:1006900015005E18A0E7002900D165E74C466746C3
:1006A000ACE68F1B7B012ED5BF01BF09380001F0DE
:1006B00061FD3B00053883404C46013510E7002EB4
:1006C00000D140E7002900D141E78023DB039F42AE
:1006D00000D23CE79C4500D339E7674637E700295D
:1006E00000D134E78023DB039F4200D22FE79C45F3
:1006F00000D32CE74C46674629E7002900D134E7B0
:100700000023CF087AE64C460123FF0876E6002F47
:1007100000D129E7FF0871E6FFFFFFFBFFFFFF7D28
:1007200080220024FF20D2039DE6002366E60023FA
:10073000D70863E60120720100D5E7E63100002307
:10074000CF085BE60123C70858E6C046F0B5464629
:100750004F46D6464502C0B5C30F470098460E1C0B
:100760006D0A3F0E5BD0FF2F21D08023ED00DB040C
:100770001D43002399469A467F3F74027300640A22
:100780001B0EF60F002B20D0FF2B43D08022002021
:10079000E400D20414437F3B4246FF1A4B467240AA
:1007A0000F2B00D99DE071499B00CB589F46002D2F
:1007B0005AD108239946063B74029A467300FF27D4
:1007C000640A1B0EF60F002BDED1002C3BD1012357
:1007D00042464946724019430E2918D86448890098
:1007E00041588F465346022B00D1B8E0032B6ED000
:1007F00042462C00012B40D100200024C00520439C
:10080000D2071043E0BCBA46B146A846F0BDFF206F
:100810000024F3E7002C20D10223FF3FD8E7002D6E
:1008200005D104239946033B00279A46A5E72800F3
:1008300001F0A0FC7627431F9D4000237F4299468C
:100840009A463F1A99E7200001F094FC431F9C4010
:1008500076235B421B1A00209EE703234A461A4375
:1008600091460320FC3397E70C239946093BFF2769
:100870009A4682E703282CD0320038007F300028C7
:1008800047DD630704D00F232340042B00D004343A
:10089000230103D53800374B80301C40FE28B6DCDE
:1008A000A401640AC0B2A9E780240022FF20E40367
:1008B000A4E78023DB031D4201D01C420BD080241F
:1008C000E4032C4364024246FF20640A96E746464E
:1008D0002C008023DB031C4364023200FF20640AE7
:1008E0008CE76D01600185422DD21B230024013F5E
:1008F0000126290064006D00002901DB854201D337
:100900002D1A3443013B002BF3D16B1E9D412C4328
:10091000B3E701231B1A1B2B00DD6DE721009E3777
:10092000D940BC400B00611E8C412343590704D0C1
:100930000F211940042900D00433590113D49B011D
:1009400000205C0A5AE71A2301242D1AD0E7981ECA
:1009500043425841404232000024C0B24EE7424672
:10096000FF2000244AE70120002447E7A897000859
:10097000E8970008FFFFFFF770B542004E024C00F9
:1009800045026D0A120EC30F760A240EC90FFF2A04
:1009900010D0FF2C0CD00120A2420AD1B54208D1C0
:1009A0008B420FD0002A04D12800431E984100E05A
:1009B000012070BD0120FF2CFBD13543F9D14B4004
:1009C0001800F6E70020F4E730B5420044024D027B
:1009D000C30F4800640A120E6D0A000EC90FFF2AE9
:1009E00018D0FF280AD0002A1ED100280AD1002DD5
:1009F00029D0002C2DD14800013830BD002D25D143
:100A0000002A01D1002CF6D08B4219D001205B4284
:100A10001843F2E7002C19D1FF28F7D1002D15D18A
:100A200000208B42F2D1E8E70028EFD08B42EDD1D5
:100A30008242EBDC04DBAC42E8D80020AC42DCD2E2
:100A400058000138D9E7002CD7D0DFE70220404218
:100A5000D3E78B42DAD1EEE730B5420044024D02D3
:100A6000C30F4800640A120E6D0A000EC90FFF2A58
:100A700017D0FF280AD0002A1BD100280AD1002D48
:100A80001DD0002C2DD14800013811E0002D0ED1D1
:100A9000002A01D1002CF6D08B420CD1580001382D
:100AA00006E0002C03D1FF2805D1002D15D002202F
:100AB00030BD002806D101205B421843F8E7002C26
:100AC000F6D0F8E78B42F6D18242F4DCE6DBAC42AA
:100AD000F1D80020AC42EBD2E0E700208B42EAD113
:100AE000E6E78B42E7D1F2E7F0B54F464646D646F9
:100AF0004400C0B546020F1C760A240EC50F002C18
:100B000000D1DAE0FF2C74D08023F600DB041E4312
:100B1000002399469A467F3C7B025B0A98467B00FD
:100B20001B0EFF0F002B74D0FF2B00D18EE042462E
:100B30008021D200C90411437F3B2A00E4184B46B0
:100B40007A408846D2B20A2B75DC4B460020022B35
:100B50000FDD494601238B40A621C9000B4269D114
:100B6000902189000B4200D000E18821194200D079
:100B7000F5E041460904090C43460800350C3604EB
:100B80001B0C360C704369435E435D437618030CBF
:100B90009B19994203D9802149028C46654400047F
:100BA0001904000C09188E01701E86411B0C890E59
:100BB0005B190E439B011E431B016CD423007F3342
:100BC000002B00DCB1E0150071070BD00F202100D5
:100BD0003040042806D00436320103D56E4B1E4047
:100BE0000B008033FE2B00DDBDE0B201520ADBB208
:100BF00048E0002E00D092E008239946063B9A4632
:100C00007B025B0A98467B00FF241B0EFF0F002B24
:100C10008AD14246002A64D14946013211438946AD
:100C20000A2908DC7D400120EAB2022991DC150086
:100C3000002227E015005346022B00D193E0032B3E
:100C40001AD0012B2CD1002300221BE04346FF3495
:100C5000002B55D003214B460B4319000A2B00DC17
:100C600092E00F2B00D08CE08022D203164203D0FA
:100C70004346134200D17DE08022D2033243520228
:100C8000520AFF23D805ED0710432843E0BCBA46BB
:100C9000B146A846F0BD0123150071081E400E4361
:100CA00023008033611C002B41DD720794D00F229A
:100CB0003240042A00D08EE78EE7002E05D10423AF
:100CC0009946033B00249A4626E7300001F052FA89
:100CD0007624431F9E400023644299469A46241A74
:100CE0001AE7404601F046FA4B46241A763C0A2B96
:100CF000A1DC4346053883407D409846EAB224E7AC
:100D00004A46023313432A007A40D2B20A2B92DCBD
:100D100049461500002926D09946022019E70C23E0
:100D20009946093BFF249A46F6E615002100012268
:100D3000D31A1B2B00DD86E79E3132008E40DA404D
:100D4000731E9E413243530704D00F231340042BDC
:100D500000D00432530110D50123002292E73D0058
:100D60004646824667E7FF2300228BE78022002564
:100D7000D20386E73D001A4383E792010023520A1B
:100D800080E73D00464677E72A0001237A408B4002
:100D90000320D2B2E9E6C046FFFFFFF7F8B54746A9
:100DA000CE46430280B55F0A9B0945004A009C4637
:100DB0004B02C40FCE0F2D0E580A120E9909FF2AAE
:100DC0006BD001235E40AB1AB4424BD0002B00DC49
:100DD000FFE0002A00D188E0FF2D00D1EFE0802263
:100DE000D204114301201B2B08DC08002022D8402C
:100DF000D31A99400B005A1E9341184363461B1A9D
:100E00009C4663465B0100D4CDE063469F01BF0969
:100E1000380001F0AFF93B0005388340854200DC23
:100E2000A2E0B74A2D1A1A4094465A0700D1C3E0EF
:100E30000F221340042B00D1BEE004239846C44483
:100E400063465B0100D4B7E0681CFE2D00D0A5E02E
:100E5000FF200022C0051043E4072043C0BCB94670
:100E6000B046F8BD002B00DCEBE1002A46D0FF2D98
:100E700000D1A4E08022D20411431B2B00DCFBE054
:100E8000052398462B00C4446246D708FF2B00D1A7
:100E900095E07A02520AD8B2DCE72B00FF3B994674
:100EA000002918D101235E40B44200D1CAE04B466C
:100EB000002B2DD0002D00D03CE1FF236446002CF8
:100EC00000D15FE15D1E012B00D174E13400FF2BE6
:100ED00074D02B0003E1B44200D19CE0002B17D06A
:100EE000002DEAD0070034006CE00029CCD05A1E57
:100EF000012B2BD0FF2B62D0130073E70029C3D046
:100F00005A1E012B00D11EE1FF2B58D01300B4E76D
:100F1000FE226B1C1A420DD1002D60D06346002BBF
:100F200000D020E1002900D028E180220024FF2009
:100F3000D2038FE763465F1A7B0100D5FEE0002FE6
:100F400000D065E700240020002283E76346591A99
:100F50004B0100D419E18F01BF09380001F00AF9F3
:100F60003B000538834001252022401B0130121A26
:100F700019009340C1405A1E934119438C460B1EE1
:100F8000E1D05B0700D152E10F2300250B40042B79
:100F900000D052E701204A0100D492E0C0B263467B
:100FA0009A01520A56E763465B0705D00F23624653
:100FB0001340042B00D040E72B0065E70700002F0B
:100FC00000D145E78022D2033A435202FF20520A61
:100FD00040E7002B79D1FE226B1C1A42AAD163464E
:100FE000002B00D1F5E0002900D1D1E05F1A802369
:100FF000DB041F4200D10EE1624601248A1A9446A6
:1010000000203440002A00D124E701201A42C6D132
:101010000023D7083DE7002B17D0002D00D0AFE00C
:10102000FF236546002D00D1ADE05E1E012B00D1EF
:1010300089E0FF2BC2D01B2E00DCABE04B1D9C4691
:10104000130021E74B46002B70D1FE226B1C1A4285
:101050005ED1002D00D0C3E06346002B00D1D0E06C
:10106000002900D194E00A006244530100D4D8E082
:1010700092010120520AEDE608002022D840D31A3E
:1010800099400B005A1E934103439C4463465B0105
:1010900089D50135FF2D00D1DAE6624601231949D1
:1010A000134052080A401A43130094465B0704D0C9
:1010B0000F231340042B00D0BFE663465B0100D52D
:1010C000C2E66346DF082B00E3E6531B002D00D188
:1010D000F4E680206446C0040443A44634000120A2
:1010E0001B2B09DC20256046D840EB1A65469D4045
:1010F0002B005D1EAB4118430B1A9C46150080E681
:10110000FFFFFFFBFFFFFF7DFE226B1C1342A3D0FE
:10111000FF2B00D19CE6614449084A0749D00F22C1
:101120000A40042A45D00A1D9446ADE6002D00D1A0
:1011300076E78DE63400FF2000228BE6634601242B
:10114000CF1A344064E661444B016DD548084449E8
:10115000014043072CD00F230340042B28D00B1D44
:101160009C46022390E6002900D12BE78023DB0375
:101170009F4200D226E7984200D323E7012434405F
:1011800007001FE734008C467EE60123CF0880E687
:1011900000237EE620206546801B854063462800AC
:1011A000F340451EA84103439C4615008C446DE75F
:1011B0000223CF086DE60F1B7B0128D5BF01BF09B5
:1011C000380000F0D7FF3B0005388340340001258C
:1011D000CAE6002900D1B5E601240700344058E6EC
:1011E0006346002B00D1E9E6002900D1EAE680231E
:1011F000DB039F4200D2E5E6984200D3E2E6070017
:10120000E0E6002900D19EE60023CF0841E6340045
:101210000123FF083DE6002F00D193E60023FF08DD
:1012200037E60023D70834E60123CF0831E68022D1
:101230000B00D20401201340114200D0AEE6CF08CB
:1012400027E6002B00D15FE7561B002D01D13300AC
:10125000E7E680236046DB0418438446EBE6C0469D
:10126000FFFFFF7D43024A02400049005B0A520A29
:10127000090E000EFF2806D00020FF2902D1531EC0
:101280009A4110007047FE38002BFBD1F4E7C046AE
:1012900041024200C30F490A0020120E7E2A03DDDC
:1012A0009D2A02DD094A98187047802000040143F6
:1012B000952A07DC9620821AD1404842002BF3D1B0
:1012C0000800F1E7963A9140F7E7C046FFFFFF7F3D
:1012D000F0B54F464646D646C0B582B00090019163
:1012E0000E034C00CD0F710A009E5F00760F0E4377
:1012F000009900920193C900894619037B0D984615
:10130000019B490ADB0F9C46009B009A5B0F0B4335
:101310004146640DD200611A654500D1A6E000295E
:1013200072DD4746002F00D1DDE0CC4FBC4200D13A
:101330009AE10127382917DC80273F043B431F2906
:1013400000DDDDE12027781A1F008740BA4617002C
:10135000CF40844638005746074360468240CB4022
:10136000501E8241F61A17434B46DF1BB945804198
:101370004042361A330200D4FFE07602760A002E8D
:1013800000D13CE1300000F0F5FE0300083B2021D5
:101390003800CA1AD0409E4002009F4032439C420F
:1013A00000DDA6E1181B0130091A3E008F40C6403F
:1013B0007B1E9F4113008B4037431F43C2403B00BD
:1013C00016000024134300D1DFE17B0700D132E394
:1013D0000F233A003B40042B04D03A1DBA42BF41D0
:1013E0007F42F619330200D423E39C4B01349C4224
:1013F00000D1B4E09A4B64051E40640D7707D20813
:1014000076021743360BACE0002900D17EE041465E
:10141000091B002C00D060E134004846044300D191
:10142000C9E14C1E012900D12EE28C4DA94200D108
:1014300024E20127382C11DC21001F2900DD0BE2FA
:10144000202437004846641AA740C840074348464E
:10145000A040CE40441EA0419B1B0743D71BBA426D
:1014600092415242654644469E1A83E7002900DCB9
:101470009CE04746002F67D11F00174300D1E4E0EE
:10148000481E012900D19BE1744FB94200D1EBE025
:1014900001270100382811DC1F2900DDC7E12027C2
:1014A000781A1F00844687401000C84007436046F2
:1014B0008240CB40501E8241F61817434F444F459F
:1014C000804140423618330257D5644B01349C4268
:1014D00045D00121624B7A081E4039400A43F70784
:1014E0001743760871E71F00174300D1ADE04F1E88
:1014F000BC46012900D182E1584FB94200D190E1A8
:1015000061460127382900DD2EE718E7554F611C99
:10151000394200D0D0E0310048461F000143174354
:10152000002C00D03DE1002900D1BCE1002F00D00B
:10153000BFE14B460021D80877070743F0080603B0
:101540004C05360B640D0CE0444FBC4200D18BE0DF
:1015500001273829B2DC80273F043B439CE7002663
:10156000002724053443ED072C433800210002B046
:10157000E0BCBA46B146A846F0BD7B0704D00F23B5
:101580003B40042B00D028E7F808344B770707438B
:10159000F0089C4200D04AE23B00034359D0802629
:1015A0003603064336032D4C360BDAE7002961D0AB
:1015B0004146091B002C00D1B9E0284CA04500D1C0
:1015C000A5E10127382913DC8024240426431F29A0
:1015D00000DDC8E1202437004846641AA740C8400F
:1015E00007434846A040CE40441EA0419B190743F4
:1015F000BF189742924152424446D61863E73800DA
:1016000000F0B8FD030018331F2B00DCBFE63A00E2
:10161000083882409C4200DD83E01B1B581C1F28B9
:1016200000DCB4E117001F3BDF40202805D0402339
:101630001B1A9A40531E9A4117430024002F0AD0C8
:101640007B0700D0C4E626009EE74B460C00D80876
:101650009BE70027014C002683E7C046FF070000F8
:10166000FFFF7FFFFE0700004B467707D8080743C0
:10167000F00891E7CD4F611C39426BD131004846EB
:101680000143002C00D04BE11F001743002900D17B
:1016900081E1002F00D14CE74A444A458041F618C9
:1016A00040423618330200D5B0E117009146374367
:1016B00000D03EE7002654E74946891A8846C145CE
:1016C000BF41F11A7F42C91B0F0261D447460F4345
:1016D00000D1BDE00E00474651E6B54CA04500D113
:1016E00000E10127382900DDB8E6802424042643E0
:1016F000A3E6B04EE41A16407B0700D03FE743E76D
:101700000F001800203FF8408446202903D04027CE
:10171000791A8B401A43531E9A41634617001F43A0
:1017200022E6A448E11A10404707C00807E7340042
:101730004846044300D1FAE04C1E012900D1D7E00D
:101740009B4FB94200D1E2E00127382C00DD4FE782
:1017500021003CE7964CA14200D1DDE04A444A45D5
:101760008041F31840421818C7075208174346082B
:10177000520705D00F220C003A40042A00D02CE674
:101780007607FF0837430009D9E600270026E8E678
:101790004946571ABA4292419E1B52426546B61AB2
:1017A000EDE5002900D0C6E0002F67D18026002596
:1017B0007F4C3603D5E665460C001E00D008E4E6F3
:1017C0004A444A458041F318404218181100030268
:1017D00000D496E0774B49081840C3070B434408F0
:1017E000490700D129E10F221A40042A00D1EAE07A
:1017F0001F1D9F42B641764236190224C4E649466F
:101800008F1AB9458041F61A4042361A330206D47F
:101810007307FF0801211F43F00890E66546012485
:10182000ABE54B467707D8080743F008B4E60F004E
:101830001800203FF8408446202903D04027791A19
:101840008B401A43531E9A41634617001F4335E6E7
:1018500000250024002684E60C003500203CE540ED
:10186000202905D04024611A8E40494631438946DB
:101870004846411E884107002F43EFE5D2085F0725
:1018800065461743D80887E6171ABA4292419E1B4D
:101890005242B61A3302C1D47307FF0865460121CC
:1018A0001F43F0084BE6002F7BD065461E00914693
:1018B0003FE6811A8846C145A441F11A6442091BDA
:1018C00080242404214277D0101A824292410700DA
:1018D0009E1B5242B61A374300D0A0E06546002452
:1018E00000263EE65F07D20865461743D80853E650
:1018F000811891429241F01852428018030200D59B
:1019000068E74707C9080F43C008012117E6D20856
:101910005F071743D8083FE60C000026002720E6A3
:10192000002956D15F07D2081743D80834E60C00C7
:101930001E00D00829E6C10870070143F008002FF7
:1019400062D080242403204207D0DE08264204D13E
:1019500065463000D1085B0719434F0FC900C9081D
:101960007F070F4318E60C003000203CE04084461F
:10197000202905D04024611A8E40494631438946CA
:101980004846411E8841614607000F4330E620214A
:101990000027091A0EE51E00002F00D022E50024C2
:1019A00058E7002500240026DBE5C046FE070000BE
:1019B000FF070000FFFF7FFF47460F4300D147E7C7
:1019C0000E00C146B5E5DF08640702212743000980
:1019D000B5E51900C008770707431143F00800294F
:1019E00000D1D9E580210903084207D0DC080C4268
:1019F00004D1D2085B071A43170020007B0FFF00B9
:101A0000FF085B071F43C7E50F00C5E5124BD2086F
:101A100033405F075B02012417431E0BA1E52642FA
:101A200012D00D4B6546020001241E40E6E4210061
:101A300085E51700A8E53A00D4E4DB0864071C43F9
:101A40002700022100097AE5C008770707436546A9
:101A50000021F00873E5C046FFFF7FFFF0B5574651
:101A60004E46DE464546E0B51F000B031B0B160035
:101A70009A46CA0F4B000400914685B05B0D00D119
:101A8000CFE1CD4A934255D05146420FC9000A4397
:101A9000802109041143C2009046C84A8A469346F1
:101AA0009B440023002502933C037B00FA0F019620
:101AB000240B5B0D009200D188E1BF4A934200D114
:101AC00092E0BE4A944663449B440A2D42DCE40003
:101AD000730F23438024494624041C43F3000193DD
:101AE000009B00205940CBB20393022D00DC94E010
:101AF0000123AB401D00A6232A00DB001A401D4233
:101B000000D029E290239B001D4200D14DE200232A
:101B1000802499462403A84B10004A461B05234302
:101B2000D2071343190005B0F0BCBB46B246A94624
:101B3000A046F0BD52460243904600D0ACE19B4621
:101B40000223924608250293AEE7009BA2469946DF
:101B5000019B9846029B022B00D1CAE1032B00D1C6
:101B600092E1012B10D1002300240022D4E70122AE
:101B70007B083A4013435246D207134398465346D4
:101B80005B089A46039B99465B46581C8023DB0002
:101B90005B44002B00DCB1E1424652070BD00F2220
:101BA00041460A40042A06D04246111D4145924151
:101BB0008846524292445246D20106D55246804B44
:101BC0001A4080239246DB00C3187E4A934200DD10
:101BD0008FE14246D108524652070A4351465B05FF
:101BE0004C02240B5B0D97E7734B26439C46E34462
:101BF000002E00D16FE1032349461D43009B59404D
:101C0000CBB203930A2D00DD33E10123AB401D006D
:101C10000323029388222A4297D142464346120464
:101C2000120C160001981D0C030C0004000C464316
:101C3000B4461E006E430096160007005E436146E0
:101C4000B0466F430E0CB8444644B74205D98021D4
:101C500049028846009F4744009761460904090CE1
:101C6000370C36048C463100614401911100260C7A
:101C70002404240C61438C46210069438946614653
:101C8000090C884672434A4442447543914503D93E
:101C90008021490288464544110C88466146090462
:101CA000090C8C4612046244B91802915146090C81
:101CB0008C4651460F043F0C390041434544884649
:101CC000614641438A4641466046090C894658436D
:101CD0007B4353444B449A4503D9802149028946AA
:101CE0004844190C894641460904090C88463900C4
:101CF00061431B044344884661464C4371438C4610
:101D0000414677430E0C3F19F6194844B44203D9B3
:101D1000802149028946CC440299009F89463104BA
:101D20004F4489464146974292410C04240C4C444E
:101D3000FF1852426419A1189F429B41884682466F
:101D40005B42994690459241AC42A441C244D14481
:101D500052426442144399459B41824592415B4201
:101D6000524213434A46360CA419E31863445B02FB
:101D7000D20D1A43019992467A020A43501E8241BB
:101D8000FF0D17434A4652021743B846DB0100D500
:101D9000EDE60D4B039A5B449146002B00DCACE072
:101DA0003A00520700D110E70F2258463A40042A61
:101DB00000D0F9E609E7C046FF07000001FCFFFF7D
:101DC000FFFFFFFEFE070000FF030000220032437A
:101DD0006FD0002C00D1C2E0200000F0CBF902004F
:101DE00003000B3A1D20821A30001900D040083938
:101DF0008C400200224334008C405946CB1A86495D
:101E00008B469B440A2D00DDA4E64946009B0194C5
:101E10005940CBB2140000200393022D00DD67E689
:101E2000FBE65346034398463CD05346002B00D173
:101E3000A3E0504600F09EF90B235B429C46020053
:101E4000844411005046083988401D23804660466E
:101E50001B1A2000D8400300404603439A46230043
:101E60008B4098466C4B00259B1A9B46002302939F
:101E70001AE60F2D00D0C9E0802352461B031A42F8
:101E800002D01C4200D192E08024534624031C431C
:101E900024034246240B3EE69B46032380460C2542
:101EA000029301E600239A469B46013304250293E0
:101EB000FAE501210D430A2D00DD4BE64946009865
:101EC0004140C9B20391022D00DC96E000230024BA
:101ED000012001930CE649460223009A2B4351400E
:101EE000CAB203920A2B00DD34E6002D57D1039BC2
:101EF000994600240022494B0EE658460121C91A92
:101F0000382900DD2FE61F2956DD1F225446524294
:101F1000D31ADC40202907D0414B42469C46534609
:101F2000604483401A43904642460721531E9A411B
:101F30000B00224313400024114209D00F23134009
:101F4000042B5DD0111D91429B410A005B425B074F
:101F5000D2081A430023DFE5039B9946FAE501986E
:101F600000F008F902000300153220331C2A00DCBF
:101F700038E7019A083882403FE700F0FBF8152364
:101F80009C4684440200634620321C2B00DC58E748
:101F9000002398462300083883409A4662E71D00D4
:101FA0000023002402200193A2E5029032E61C43A4
:101FB000009B019A9946AEE51A4B5246C31840461B
:101FC0009A40C8400243404698400300581E83414F
:101FD00054461A43CC40530709D00F231340042B17
:101FE00005D0131D934292415242A4181A002302B5
:101FF00008D50123002400228EE5894600248BE5C4
:102000000023A5E763076402240BA1E7009BA24617
:102010009946019B984637E70DFCFFFFFF0700003C
:102020003E0400001E04000010B5041E10D000F095
:10203000A1F80E4B1B1A5B055B0D0A280FDC0B2267
:102040002100121AD14015300A038440120B01E01E
:10205000002300221B0513432000190010BD22009D
:102060000B38824012030024120BF3E71E04000019
:10207000F0B54B000F035B0D3A4C450F83B07F0A60
:102080005E1C2F4300900191CA0FC50026420BD061
:1020900035495C18FE2C13DDFF200023C0051843D2
:1020A000D207104303B0F0BD3D43002B01D1002007
:1020B000F4E7002DF0D08023DB03FF203B43EDE766
:1020C000002C0CDD009BFF009B01581E8341690F13
:1020D0003B430B43590727D1DB08E0B2DEE7210081
:1020E000173131DB80211E2009043943001B1F28D2
:1020F0002DDD02267642341B0E00E64034002028F7
:1021000004D01A488446634499400D432B00591E5D
:102110008B412343590703D00F21194004290BD1C8
:102120009B0100205B0AB9E70F211940042904D163
:102130009B015B0AE0B2B1E7002404335901F7D5F3
:1021400001340023E0B2A9E700200023A6E7084CF1
:102150001C192B00A540C340A140681E854129439E
:102160000B43D7E7FE07000080FCFFFFA2FCFFFF48
:1021700082FCFFFF1C2101231B04984201D3000CA9
:1021800010391B0A984201D3000A08391B099842EA
:1021900001D30009043902A2105C40187047C04600
:1021A0000403020201010101000000000000000020
:1021B00080B584B000AF786039603B68012B1ED0D9
:1021C0003B68042B19D03B68102B14D03B68402B84
:1021D0000FD03A6880235B009A4208D03A68802387
:1021E000DB009A4201D105230AE0062308E004231C
:1021F00006E0032304E0022302E0012300E00023C1
:102200000F203A1813707B68183319003B181B789D
:102210000A4AD35CCB18BB60BB681B683A181278BB
:1022200007498A5C110008228A40D2431A40BB68E1
:102230001A60C046BD4604B080BDC0462498000860
:102240002C98000880B500AF154B10211800FFF73F
:10225000AFFF80235B00124A19001000FFF7A8FFB0
:102260000F4B00229A630E4B0022DA630C4A0C4B90
:10227000126A1A620A4B1A69094B01218A431A61D0
:10228000074BDA68064B01210A43DA60044B1A68EF
:10229000034B01210A431A60C046BD4680BDC046BB
:1022A000002C014080B500AF084B094A9A60074BEB
:1022B000084ADA60054B0B225A60044B1A68034B3C
:1022C00001210A431A60C046BD4680BD0800024095
:1022D000402401408405002080B500AF044B1A68FB
:1022E000034B01210A431A60C046BD4680BDC0466B
:1022F0000004004080B500AF0B4B01211800FFF730
:1023000057FF094B1A6A084B01210A431A62064B10
:10231000962252005A63044B1A68034B01210A4368
:102320001A60C046BD4680BD0020004080B500AFA9
:102330001E4B5A6C80231B0213400AD01B4B5A6C55
:102340001A4B1B490A405A641A4B1A7820210A4337
:102350001A70164B9B6B002B08D1144BDB6B002BB8
:1023600004D1124B1B6A144A134010D00F4B0022A9
:102370009A630E4B0022DA630C4B1A6A0B4B0F491F
:102380000A401A620B4B1A7820210A431A700C4B30
:102390005A6980239B01134004D0064B1A782021F0
:1023A0000A431A70C046BD4680BDC046002C01409D
:1023B000FF7FFFFFA00200205005FFFFAFFA0000E3
:1023C0000008004880B500AF124BDA6996235B0124
:1023D0009A421BD3104B9B6B002B17D10E4BDB6B20
:1023E000002B13D10C4B5A6C80231B0213400DD1D0
:1023F0000A4B5A69094B10218A435A61054B002246
:10240000DA61074B1A7820218A431A70C046BD460C
:1024100080BDC04630010020002C0140001400485F
:10242000A002002080B500AF044B5A69034B102175
:102430000A435A61C046BD4680BDC04600140048EC
:1024400080B500AF044B1A6A034BAA21C9000A43A6
:102450001A62C046BD4680BD002C014080B500AF69
:10246000054B1A6A044B01218A431A62024B00226F
:102470005A63C046BD4680BD0020004080B500AF15
:10248000044B1A6A034B01210A431A62C046BD4637
:1024900080BDC04600200040B0B59AB000AFCF4B21
:1024A0005969CF4B5B889BB21A00CE4B9B6FD31AF6
:1024B0005B00CA18C94B5A61C84B1A69C84BDB8804
:1024C0009BB2D218C54B1A61C44B9A69C44B1B8985
:1024D0009BB2D218C14B9A61C34B1B685A1CC24BAA
:1024E0001A60C14B1A68C14B1B79DBB29A4259D9A9
:1024F000BA4B1A69B94B1B6A53439A0CB74B1A6013
:10250000B64B1A68BA4B1B899BB25343DA0AB34BDA
:102510001A60B24B5A69B14B1B6A53439A0CAF4BCA
:102520005A60AE4B5A68B24B5B899BB25343DA0A8E
:10253000AA4B5A60A94B9A69A84B1B6A53439A0C41
:10254000A64B9A60A54B9A68A94B5B889BB25343F4
:10255000DA0AA24B9A60A14B1A6880235B019A4267
:1025600002D39E4AA34B13609C4B5A6880235B01A5
:102570009A4202D3994A9F4B5360984B9A688023A2
:102580005B019A4202D3954A9A4B9360934A002387
:102590005361924A00231361904A00239361924A47
:1025A000012313608E4B5B899BB219008D4AB223C5
:1025B000D35A9BB2CB1A5B005A428F4B5A60884B5E
:1025C0009B889BB21A00874B9B6FD31A5A008A4B89
:1025D0001A60834B5B8A9BB21900824A8823D358C6
:1025E000CB1A5A00844BDA60834B18695969824BC5
:1025F0005A68814B1B6853433B64DB177B643A6C1E
:102600007B6C12184B417C490A614B617B4B996989
:10261000794B5A68784B5B685343CA18774B9A6179
:10262000764B1969744B1A68734B1B685343CA186D
:10263000724B1A61714B59696F4BDA686E4BDB68EC
:102640005343CA186D4B5A61674B5B685A1C664B03
:102650005A60654B5A68654B1B79DBB29A4200D8C9
:10266000B7E0664B9B69BB630023FB635B4B1B6A54
:102670003B6300237B633A6B7B6BB86BF96BFDF7B5
:1026800009FE02000B009903940C0C439D0C5B4B5C
:102690001C635D63594B1B69BB620023FB624F4B9C
:1026A0001B6A3B6200237B623A6A7B6AB86AF96AFA
:1026B000FDF7F0FD02000B009903900C3866386EB0
:1026C000084338669B0C7B664C4B396E7A6E1962F8
:1026D0005A624A4B5B69BB610023FB613F4B1B6A3B
:1026E0003B6100237B613A697B69B869F969FDF751
:1026F000D1FD02000B009903900CB865B86D08433A
:10270000B8659B0CFB653D4BB96DFA6D9962DA6259
:10271000394B1A695B69002B19DB374B186959690A
:102720002E4B1B6ABB600023FB60BA68FB68FDF799
:10273000B1FD02000B009903900C3865386D084319
:1027400038659B0C7B653A6D2B4B9A6126E02A4BD2
:102750001A695B6900200021801A994102000B0070
:1027600025490A614B61244B186959691B4B1B6A47
:102770003B6000237B603A687B68FDF78BFD0200BD
:102780000B009903900CB864B86C0843B8649B0CB8
:10279000FB64BB6C5B421A00174B9A61164900221E
:1027A00000230A614B611449002200230A634B6332
:1027B000124B00229A61114B00221A610F4B00222A
:1027C0005A61084B1A7801210A431A70064B0122FC
:1027D0005A60C046BD461AB0B0BDC046B800002021
:1027E00084050020A002002030010020E401002028
:1027F00068050020FF0F000078000020E80000209E
:1028000080B500AF164B1B689B07DB0FDBB2012BBB
:1028100022D1134B1A7802218A431A70104B1A786E
:1028200001218A431A700F4B5B6B0D4AD28992B219
:10283000934209D30B4B5A6B094BDB899BB21900AE
:10284000084B521A5A6302E0064B00225A63044BAB
:102850001A7804218A431A70C046BD4680BDC0461E
:10286000800300200020004080B500AF154B1B689E
:10287000DB07DB0FDBB2012B21D1134B5A6B124B61
:10288000DB6A1049C98989B25B1A9A420ED80E4B8D
:102890005A6B0C4BDB899BB219000B4B52185A63D5
:1028A000084B1A7801218A431A7003E0064A064B46
:1028B000D26A5A63034B1A7804210A431A70C0463D
:1028C000BD4680BD800300200020004080B500AFE1
:1028D0000C4B5B6F9B07DB0FDBB2002B0FD1094B5F
:1028E000DB8F9BB25B099BB2013B99B2054B402247
:1028F0009952044B40229B5A9AB2034BDA62C0466B
:10290000BD4680BDA0020020002C014080B500AF74
:10291000154B5B6F9B07DB0FDBB2002B20D1124BFB
:10292000DB8F9BB25B099BB2013B99B20E4B4022FD
:1029300099520D4B40229B5A9BB20C4A93420FD89E
:10294000094B40229B5A9AB2E1239B009A4207D935
:10295000054B40229B5A9BB214331A00044BDA6297
:10296000C046BD4680BDC046A0020020DB05000079
:10297000002C014080B500AFC14BDB685A1CC04B36
:10298000DA60BF4BDA68BE4B1B699A420ED3BC4B70
:102990000022DA60BA4B5B695A1CB94B5A61B84BDA
:1029A0005B69062B02D9B64B07225A61B44B5B69AF
:1029B000062B13D9B34B00225A70B24B1A78102150
:1029C0000A431A70FFF7B2FCFFF748FDAE4B002236
:1029D0005A70AD4B1A7820210A431A70A94B9B6A92
:1029E0005A1CA84B9A62A74B9B6AA54A1279D2B28D
:1029F000934202D9A34B01229A62A44B9B685A1CB2
:102A0000A24B9A60A14B9A68F023DB009A4203D94B
:102A10009E4BF022D2009A609A4B1B689B07DB0FFB
:102A2000DBB2012B0DD1994B5B695A1C974B5A6154
:102A3000964B5B69964A934206D9944B944A5A61E5
:102A400002E0924B00225A618E4B1B689B06DB0F03
:102A5000DBB2012B14D18D4BDB695A1C8B4BDA6135
:102A60008A4BDA6996235B019A420CD3874B9622F4
:102A70005201DA61834B1A7820218A431A7002E0EE
:102A8000824B0022DA617F4B5B6F9B07DB0FDBB26F
:102A9000012B0DD17D4B1B6A5A1C7C4B1A627B4B60
:102AA0001B6A7C4A934206D9784B794A1A6202E043
:102AB000764B00221A62784B9B7BDBB20133DAB291
:102AC000754B9A73744B9B7BDBB2092B02D9724B0B
:102AD0000A229A73714B9B7BDBB20133DAB26F4BE4
:102AE0009A736E4B9B7BDBB2092B02D96B4B0A228C
:102AF0009A73664B5B6A5A1C644B5A62634B5A6A00
:102B000092239B009A4202D9604B654A5A625D4B00
:102B10005B6F5B06DB0FDBB2012B14D15B4B9B6A57
:102B20005A1C5A4B9A62594B9A6AF023DB009A421C
:102B30000CD9564B00229A62524B7422995C402069
:102B40008143995402E0514B00229A624C4B9622E9
:102B50009B5A9BB2002B10D04C4B9B6C5A1C4B4B7E
:102B60009A644A4B9B6C4F4A934206D9444B962237
:102B700000219952454B00229A64414B98229B5A5E
:102B80009BB2002B10D0414BDB6C5A1C3F4BDA64DC
:102B90003E4BDB6C434A934206D9394B98220021C5
:102BA00099523A4B0022DA64364B5B78DBB2012B48
:102BB00011D1344BCC229B585A1C324BCC215A5049
:102BC000304BCC229B58334A934208D92D4BCC2210
:102BD0002F49995003E02B4BCC2200219950294BCF
:102BE0005B78DBB2012B38D1264B1B68DB06DB0F91
:102BF000DBB2002B31D1234B9B6A012B2DD1214B12
:102C000042229B5A1BB29BB202339BB219B21D4B9C
:102C1000422299521B4B42229B5A1AB2C8239B0054
:102C20009A4204DB174B4222C82189009952154B66
:102C300044229B5A1BB29BB202339BB219B2114B76
:102C4000442299520F4B44229B5A1BB2002B11DB9A
:102C50000C4B4422002199520CE00A4B5B78DBB20A
:102C6000002B07D1074B442200219952054B4222E9
:102C70000021995200F018F8C046BD4680BDC046FC
:102C8000E4010020A0020020800300203001002089
:102C900000770100FF7601000007002034070020C4
:102CA00049020000FFD5830080B500AF2C4B1B69A3
:102CB0004022134004D12B4BA6220121995203E05C
:102CC000284BA62200219952264BA8229B5A9BB240
:102CD000012B3AD1234BA6229B5A9BB2002B34D115
:102CE000214B5B6A99B21F4BAC2299521E4B0022BA
:102CF0005A621E4B00225A621A4BAC229B5A9BB25C
:102D00001B4A934221D9174BAC229B5A9BB2194ABA
:102D100093421AD8134BAC229B5A9BB2DB089AB24F
:102D2000154BDA620F4BAC229B5A9BB29B009AB2B6
:102D3000124BDA87114B04229A620C4B00225A6222
:102D40000E4B1A7808218A431A70064BA6229B5A0A
:102D500099B2044BA8229952C046BD4680BDC046D8
:102D600000080048E4010020000400403001002079
:102D700028230000662B0000002C0140A002002048
:102D800080B500AF284BDA69274B42215B5A1BB252
:102D90001B039A4206DD244B42229B5A1BB21A03A4
:102DA000214BDA61204BDA691F4B44215B5A1BB27D
:102DB0001B035B429A4207DA1B4B44229B5A1BB20D
:102DC0001B035A42184BDA61174BC0229A58164B14
:102DD000DB691B13D218144BC4215A50124BC42266
:102DE0009B58114A4221525A12B2934207DD0E4BB0
:102DF00042229B5A1BB219000B4BC42299500A4B1A
:102E0000C4229A58084B44215B5A1BB25B429A4237
:102E100007DA054B44229B5A1BB25A42024BC4218B
:102E20005A50C046BD4680BDA002002080B500AF0C
:102E3000094B5A689C239B009A4202DD064B074AC5
:102E40005A60054B5B68064A934202DA024B044A19
:102E50005A60C046BD4680BDA0020020710200003D
:102E60008FFDFFFF80B500AF094B9B68094A934275
:102E700003DD074B084A9A6007E0054B9B68074A49
:102E8000934202DA024B054A9A60C046BD4680BDB5
:102E9000A002002091040000920400006EFBFFFFDE
:102EA00080B500AFCF4B1B899AB2CF4BDB899BB269
:102EB0009A4207D8CB4B1B899AB2CB4B1B8A9BB249
:102EC0009A4233D2C94B5B78DBB2012B07D1C84B96
:102ED0001B889BB2012213439AB2C54B1A80C44B84
:102EE0005B889BB2012213439AB2C14B5A80C14BFB
:102EF0001A8820210A431A80BF4B1A8820210A43CE
:102F00001A80FFF713FAB94B00225A70B74B1A78A0
:102F100010210A431A70FFF7A1FAB84B00225A7029
:102F2000B64B1A7820210A431A7007E0B04B5B8831
:102F30009BB2012293439AB2AD4B5A80B04B1B68AF
:102F4000A94A128812B2934206DCAD4B1B68A64A0E
:102F5000528812B2934224DAA44B5B78DBB2012B85
:102F60000CD1A34B1B889BB2022213439AB2A04BF5
:102F70001A80A34B1B689AB29D4BDA809C4B5B88EE
:102F80009BB2022213439AB2994B5A80FFF7CEF9B3
:102F9000964B00225A70954B1A7810210A431A70EA
:102FA00007E0934B5B889BB2022293439AB2904B0B
:102FB0005A80944B5A6A92239B009A4241D98B4B78
:102FC0005B78DBB2012B07D1894B1B889BB20422B3
:102FD00013439AB2864B1A80844B5B78DBB2012B89
:102FE00005D1894B7C22995C012001439954804B87
:102FF0005B889BB2042213439AB27D4B5A807B4B71
:1030000046229B5A9BB20A339AB2784BDA87794BA5
:103010001A8804210A431A80FFF788F9734B0022AB
:103020005A70724B1A7810210A431A70FFF716FA79
:10303000724B00225A70714B1A7820210A431A7081
:1030400007E06B4B5B889BB2042293439AB2684BB8
:103050005A80664BDB8F9AB2644B46215B5A9BB217
:103060009A4208D8614BDB8F9AB2604B48215B5A79
:103070009BB29A4238D25D4B5B6F9B07DB0FDBB292
:10308000002B31D1594B5B78DBB2012B07D1584B68
:103090001B889BB2082213439AB2554B1A80544B9B
:1030A0005B889BB2082213439AB2514B5A80FFF7B8
:1030B0003DF94E4B00225A704C4B1A7810210A43AE
:1030C0001A70FFF7CBF94D4B00225A704B4B1A7810
:1030D00020210A431A70474B1A8804210A431A8098
:1030E000434B01229A8007E0414B5B889BB2082248
:1030F00093439AB23E4B5A80414B5B683A4A92885E
:1031000012B2934206DC3E4B5B68374AD28812B259
:1031100093422EDA354B5B78DBB2012B07D1344B6F
:103120001B889BB2102213439AB2314B1A80304B4A
:103130005B889BB2102213439AB22D4B5A802D4BC1
:103140001A8802210A431A80FFF7F0F8274B002261
:103150005A70264B1A7810210A431A70FFF77EF92D
:10316000264B00225A70254B1A7820210A431A70E8
:1031700007E01F4B5B889BB2102293439AB21C4B13
:103180005A809023DB051A6980231B0113403FD12D
:10319000164B5B78DBB2012B07D1154B1B889BB21A
:1031A000202213439AB2124B1A80114B5B889BB2B8
:1031B000202213439AB20E4B5A80FFF7B7F80B4BFD
:1031C00000225A70094B1A7810210A431A700F4BCB
:1031D00000229A630C4B8822995C01208143995408
:1031E0001EE0C046840500209C010020A0020020B3
:1031F000A0030020940200209C02002080030020F5
:103200007800002030010020E4010020000400408C
:10321000154B5B889BB2202293439AB2124B5A8083
:103220009023DB051A6980231B01134018D00F4B34
:1032300088229B58DB07DB0FDBB2002B0AD10B4B3C
:103240007C22995C012081439954094B1A880949D1
:103250000A401A80054B8822995C01200143995449
:10326000C046BD4680BDC046A0030020E40100204A
:1032700094020020FFDFFFFF80B500AFC046BD46CF
:1032800080BD000080B500AF3D4B5B683D4A928831
:1032900092B2934206DC3A4B5B683A4A128992B288
:1032A000934230DA384B5B78DBB2012B08D1374BD5
:1032B0001B889BB28022520013439AB2334B1A8070
:1032C000324B5B889BB28022520013439AB22F4B41
:1032D0005A802F4B1A8802210A431A80FFF726F8DA
:1032E000294B00225A70284B1A7810210A431A7071
:1032F000FFF7B4F8274B00225A70264B1A7820218A
:103300000A431A7007E0214B5B889BB2224A1340A4
:103310009AB21E4B5A801A4B1B681A4A128892B2F4
:10332000934221DD184B5B78DBB2012B08D1174BA0
:103330001B889BB28022920013439AB2134B1A80CF
:10334000124B5B889BB28022920013439AB20F4BC0
:103350005A80FEF7EBFF0C4B00225A700A4B1A788A
:1033600010210A431A7007E0084B5B889BB20B4A96
:1033700013409AB2054B5A80C046BD4680BDC04638
:10338000E8000020CC010020A0020020A0030020C3
:103390009802002080030020FFFEFFFFFFFDFFFFDB
:1033A000B0B500AF2A4B9B69002B0DDB294B1A6887
:1033B0005B68274989690C00C9170D0012196B4118
:1033C00024490A604B601DE0224B9A69DB69204C5E
:1033D000A4692000E4172100121A8B411D498A615B
:1033E000CB610FE01B4B1A685B681B480121494207
:1033F00012184B4117490A604B60164B1B695A1C47
:10340000144B1A61134B1A685B68002BEAD113D175
:1034100012498A42E6D80FE00E4B9A69DB690E48E2
:103420000121494212184B410A498A61CB61094B7B
:103430009B6A5A1C074B9A62064B9A69DB69002B00
:10344000EAD102D105498A42E6D8C046BD46B0BDA0
:1034500078000020D8040020A2FDCCD85E023327DB
:10346000B0B500AF2A4B9B6A002B0DDB294B9A6845
:10347000DB682749896A0C00C9170D0012196B41D6
:1034800024498A60CB601DE0224B1A6A5B6A204C9B
:10349000A46A2000E4172100121A8B411D490A6218
:1034A0004B620FE01B4B9A68DB681B4801214942C5
:1034B00012184B4117498A60CB60164B5B695A1C46
:1034C000144B5A61134B9A68DB68002BEAD113D175
:1034D00012498A42E6D80FE00E4B1A6A5B6A0E4820
:1034E0000121494212184B410A490A624B62094BB9
:1034F000DB6A5A1C074BDA62064B1A6A5B6A002BBE
:10350000EAD102D105498A42E6D8C046BD46B0BDDF
:1035100078000020D804002063D2F0A09D2D0F5F1A
:10352000B0B500AF164B1A6D5B6D164C6568154C47
:1035300024686C4320000024210012184B411049DC
:103540000A654B650E4B1A6D5B6D002B04D113D1D0
:103550000D498A4200D80FE0094B1A6D5B6D0B488C
:103560000121494212184B4105490A654B65044B3C
:103570009B6D5A1C024B9A65C046BD46B0BDC04605
:10358000D8040020B8000020F845971908BA68E66A
:1035900080B500AFF54B00221A60F44B00225A6050
:1035A000F249002200230A614B61F0490022002306
:1035B0000A624B62ED49002200230A634B63EC4B25
:1035C0000022DA60EA4B0022DA61E94B00225A60FD
:1035D000E74B00225A61E64B00229A60E44B00223E
:1035E0009A61E34B00221A60E14B00221A61E04B22
:1035F000E04A1A62DE4BE04A5A62DD4B00221A852D
:10360000DE4B00221A60DD49002200230A624B6271
:10361000DA4B00221A61D94B00225A60D7490022A6
:1036200000230A634B63D54B00229A61D34B0022DF
:10363000DA60D249002200238A62CB62CF4B00229B
:103640005A61CF4B00221A60CD4B0022DA60CC4B7E
:1036500000229A61CA4B00225A60C94B00229A602C
:10366000C74B00225A61C64B00221A61C44B00228C
:10367000DA61C34B00225A62C14B00229A63C04BED
:1036800000225A63BE4B00221A63BD4B0022DA624D
:10369000BB4B0022DA63BA4B00221A64B84B4422B7
:1036A00000219952B64B462200219952B44B002278
:1036B0009A64B34B502200219952B14B52220021FF
:1036C0009952AF4B00225A65AD4B00229A65AC4B24
:1036D0005C2200219952AA4B5E2200219952A84BEC
:1036E000602200219952A64B00229A66A54BA64A59
:1036F0009A81A44BA54A1A82A24BF522D200DA8104
:10370000A04B00225A819F4BFA2212011A819D4B35
:103710009F4ADA809B4B9F4A9A809A4B9E4A5A80D6
:10372000984BFA22D2001A809C4B9D4A1A819B4BDF
:103730009C4A1A82994B9C4ADA81984B9B4A5A813F
:10374000964BE222D2009A81944B994ADA80934BAD
:10375000984A9A80914B984A1A80904B974A5A807F
:103760008E4B00221A838D4B0022DA828B4B8022F3
:1037700052015A82894B802252019A82904B002238
:103780005A808F4B8F4A1A808D4B8F4A5A818C4BAF
:10379000B522D2001A818A4B8C4A9A80884B8C4A77
:1037A000DA808C4B1A8804210A431A80894B1A88C4
:1037B00001210A431A80874B1A8810210A431A8074
:1037C000844B1A8820210A431A80824B1A880221CE
:1037D0000A431A807F4B1A8808210A431A807D4BBE
:1037E0001A88802109010A431A807A4B1A8880219D
:1037F00049010A431A80774B1A888021C9010A437C
:103800001A80754B1A8801210A431A80724B1A8854
:1038100002210A431A80714B1A8840210A431A80F8
:103820006E4B1A8810210A431A806C4B1A8880212B
:103830000A431A80694B1A8820210A431A80674B71
:103840001A8808210A431A80644B1A88802149018A
:103850000A431A80614B1A8861490A431A80614BF6
:1038600001229A625F4B00229A855E4B0022DA8524
:103870005C4B1A7804218A431A705A4B0022DA6092
:10388000584B00225A61574B00221A61554B0022B7
:103890001A63544B8022D2015A63524B8022520148
:1038A0009A87504B1A7801218A431A704D4B002297
:1038B0009A634C4B1A7802218A431A70494B0022B2
:1038C0005A70484B0022DA87464B40220021995219
:1038D000444B00229A61434B0022DA61414BF022B3
:1038E000D2001A623F4B00229A603E4B00225A607F
:1038F0003C4B1A7808218A431A703A4B1A781021E7
:103900000A431A70374B422237499952354B4422A9
:1039100035499952334B482234499952314B46220A
:10392000334999522F4B1A7820218A431A702D4916
:10393000002200230A654B652A4B00229A65294B19
:103940000022DA65274B00221A66264B7422995C06
:10395000012081439954234B00229A66214B742203
:10396000995C08208143995444E0C04678000020C7
:10397000B800002055050000AA0A0000E800002059
:10398000300100209C010020410F000003040000D2
:1039900054F2FFFFAC0D000030F8FFFFB001002033
:1039A00056060000A60400007E0400003A0700004E
:1039B0005B020000260200003D0A0000CB09000067
:1039C000CC01002033040000FA0500003609000095
:1039D000E308000094020020980200209C020020CE
:1039E0000080FFFFA00200200D0900000B8EFFFFEA
:1039F0009CADFFFFEE4B7422995C102081439954DB
:103A0000EB4B00221A67EA4BEA4A9A67E84B00221E
:103A1000DA67E74B9022995C012081439954E44B8B
:103A20007422995C022081439954E14B7422995C81
:103A30007F2001409954DE4B982200219950DC4BA5
:103A40009C2200219952DA4B9E2203219952D84B95
:103A5000A02205219952D64BA22264219952D44B1F
:103A6000A42264219952D24BA622995C0120814361
:103A70009954CF4BA622995C022081439954CC4B98
:103A8000AC22CD499950CA4BA822CC499950C84B79
:103A9000B022995C012081439954C54BB222C84998
:103AA0009952C34BB42200219950C14BB821A8228E
:103AB00012025A50BE4BBC21802252015A50BC4BBC
:103AC000C822C0499950C04B802252011A80BE4B77
:103AD000802252015A80BC4BC0221A71BA4B60221C
:103AE0005A71B94B0022DA80B74B9A7A02210A4305
:103AF0009A72B54B9A7A01218A439A72B24B00228C
:103B0000DA60B14BB14A1A61AF4B00225A61AE4B39
:103B1000AF4A5A83AC4BAE4A9A83AB4BAC4A1A833A
:103B2000A94B2C2202219954A74B2D2201219954F3
:103B3000A54B7C22995C012081439954A24B7D22A4
:103B400000219954A04B7E22002199549E4B7F2244
:103B5000002199549C4B8022002199509A4B842239
:103B60009C499950984B892200219954964B8C225C
:103B700099499950944B9022995C01208143995422
:103B8000914B7422995C0120014399548E4B9222EF
:103B9000C82199528C4B9422642199528A4B9622C7
:103BA00000219952884B982200219952864B9A22E3
:103BB00000219952844B9C2200219952824B9E22D3
:103BC000995C0120814399547F4B9E22995C02208D
:103BD000814399547C4B9E22995C042081439954E3
:103BE000794B9E22995C082081439954764BA02200
:103BF00000219952794B0522DA81784B00229A8173
:103C0000764B1A7802218A431A70744B1A78012174
:103C10008A431A70714B1A7804210A431A706F4B49
:103C200000229A606D4B00225A606C4B00225A7041
:103C30006A4B1A7808218A431A70684B684A1A61DD
:103C4000664B684A9A82654B674ADA82634B1A78F8
:103C500020210A431A70614B644A1A83644B002284
:103C60009A64634B00229A636149002200230A642C
:103C70004B645F49002200230A634B635C490022C6
:103C800000230A604B605A4B00221A6158490022F7
:103C900000238A61CB61564B00229A62554B002269
:103CA0001A80544B00225A80524B00229A80514B6A
:103CB0000022DA804F4B00221A814E4B00225A819B
:103CC0004C4B00229A814B4B0022DA81494B002257
:103CD0001A82484B00225A82464B0022DA84454B16
:103CE0000022DA85434B80221201DA83414B802285
:103CF00012015A843F4B802212011A843D4B3E4AE6
:103D00009A843C4B3D4A9A853A4B802212011A868E
:103D1000384B3B4A5A85374B00221A85394B802253
:103D20001201DA80374B802212019A80354B8022B3
:103D300012015A81334BEF22D2005A80314B80223C
:103D400012011A802F4B802212019A812D4B802262
:103D500012011A812B4B80221201DA81294B802219
:103D600012011A82284B294ADA80274B284A9A8066
:103D7000254B284A5A81244BEF22D2005A80224BED
:103D8000254A1A80204B254A9A811F4B244A1A81C2
:103D90001D4B80221201DA811B4B802212011A82F4
:103DA000194B1A7E01218A431A76C046BD4680BD52
:103DB000A0020020DA07000096FBFFFF6A04000063
:103DC0009E070000F9020000E40100200087930331
:103DD000360A000000512502FF0F0000800300207A
:103DE00080BB000052090000630900007D0B000049
:103DF000D80400203C0400204C0C0000FF0A000006
:103E0000370900004C05002068050020020800006A
:103E10000308000004080000050800000608000070
:103E20000708000080B500AFC34B1B68C34AD288A7
:103E300092B2934208D2C24BDB889BB20122134359
:103E40009AB2BF4BDA8007E0BD4BDB889BB2012200
:103E500093439AB2BA4BDA80B74B1B68B74A528881
:103E600092B2934208D9B64BDB889BB2022213432D
:103E70009AB2B34BDA8007E0B14BDB889BB20222E7
:103E800093439AB2AE4BDA809023DB051A69802304
:103E90001B01134008D1AA4BDB889BB204221343B9
:103EA0009AB2A74BDA8007E0A54BDB889BB20422CD
:103EB00093439AB2A24BDA809023DB051A698023E0
:103EC0001B01134008D19E4BDB889BB20822134391
:103ED0009AB29B4BDA8007E0994BDB889BB20822B1
:103EE00093439AB2964BDA80954B2C229B5CDBB2C3
:103EF000012B08D1924BDB889BB2102213439AB25C
:103F00008F4BDA8007E08E4BDB889BB21022934305
:103F10009AB28B4BDA808A4B2C229B5CDBB2022B51
:103F200008D1874BDB889BB2202213439AB2844B83
:103F3000DA8007E0824BDB889BB2202293439AB25F
:103F40007F4BDA807E4B2C229B5CDBB2032B08D1AB
:103F50007B4BDB889BB2402213439AB2784BDA80CA
:103F600007E0774BDB889BB2402293439AB2744BB5
:103F7000DA80744B5B68744AD28892B2934209DD4E
:103F80006F4BDB889BB28022520013439AB26C4B7A
:103F9000DA8007E06A4BDB889BB26C4A13409AB226
:103FA000674BDA80674B5B68674A528992B29342EB
:103FB00009DA634BDB889BB28022920013439AB2EA
:103FC0005F4BDA8007E05E4BDB889BB2604A1340B0
:103FD0009AB25B4BDA805A4BA0229B589B03DB0FB3
:103FE000DBB2002B09D0564BDB889BB2802212013A
:103FF00013439AB2524BDA8007E0514BDB889BB2F5
:10400000544A13409AB24E4BDA804B4B5B684B4A92
:10401000128992B2934209D9494BDB889BB2802224
:10402000520113439AB2464BDA8007E0444BDB88D7
:104030009BB2494A13409AB2414BDA80474B9B8965
:104040009BB2B02B05D9454B9B899BB2444A934206
:1040500009D93B4BDB889BB28022D20113439AB231
:10406000374BDA8007E0364BDB889BB23D4A134082
:104070009AB2334BDA80304B9B68304A928992B2C5
:10408000934208D92E4B1B899BB2012213439AB24B
:104090002B4B1A8107E02A4B1B899BB201229343C9
:1040A0009AB2274B1A81244B9B68244A128A92B2F7
:1040B000934208D2224B1B899BB2022213439AB22D
:1040C0001F4B1A8107E01E4B1B899BB202229343B0
:1040D0009AB21B4B1A81244B5B78DBB2012B0CD1BB
:1040E000224B9B6A002B08DB154B1B899BB21022CD
:1040F00013439AB2124B1A8107E0114B1B899BB2F2
:10410000102293439AB20E4B1A81174B5B78DBB2A5
:10411000012B04D0144B5B78DBB2032B28D1134B5B
:104120009B6A002B24DA064B1B899BB22022134387
:104130009AB2034B1A8123E0B8000020B00100209E
:10414000E4010020E8000020CC010020FFFEFFFF7A
:10415000FFFDFFFFFFF7FFFFFFEFFFFF84050020DC
:104160000B0C0000FFBFFFFFA00200207800002022
:10417000734B1B899BB2202293439AB2704B1A81D6
:10418000704B5B78DBB2002B08D16D4B1B899BB267
:10419000402213439AB26A4B1A8107E0684B1B898D
:1041A0009BB2402293439AB2654B1A81654B5B7870
:1041B000DBB2012B08D1624B1B899BB280221343D7
:1041C0009AB25F4B1A8107E05D4B1B899BB280223C
:1041D00093439AB25A4B1A815A4B5B78DBB2022B4B
:1041E00009D1574B1B899BB28022520013439AB2CC
:1041F000534B1A8107E0524B1B899BB2524A134022
:104200009AB24F4B1A814F4B5B78DBB2012B0DD129
:104210004C4BDB68002B09DB494B1B899BB280228E
:10422000920013439AB2464B1A8107E0444B1B8914
:104230009BB2464A13409AB2414B1A81414B5B787C
:10424000DBB2012B0DD13F4BDB68002B09DA3C4B75
:104250001B899BB28022D20013439AB2384B1A8139
:1042600007E0374B1B899BB2394A13409AB2344B53
:104270001A81334B9C229B585B03DB0FDBB2002B74
:1042800009D02F4B1B899BB28022120113439AB293
:104290002B4B1A8107E02A4B1B899BB22D4A1340F6
:1042A0009AB2274B1A81264B5B6FDB07DB0FDBB221
:1042B000002B09D1224B1B899BB280225201134350
:1042C0009AB21F4B1A8107E01D4B1B899BB2224AF1
:1042D00013409AB21A4B1A81194BA0229B585B03C8
:1042E000DB0FDBB2012B09D1154B1B899BB280225E
:1042F000920113439AB2124B1A8107E0104B1B89AB
:104300009BB2164A13409AB20D4B1A810C4BA02255
:104310009B581B03DB0FDBB2012B07D0084BA022FD
:104320009B589B03DB0FDBB2012B19D1044B1B897C
:104330009BB28022D20113439AB2014B1A8117E03B
:10434000E4010020A0020020FFFEFFFFFFFDFFFFB1
:10435000FFFBFFFFFFF7FFFFFFEFFFFFFFDFFFFFA9
:10436000D94B1B899BB2D94A13409AB2D64B1A81BA
:10437000D74B00229A83D64B1B889BB21A00D44B92
:104380005B889BB25B001A43D14B9B889BB29B001E
:104390001A43CF4BDB889BB2DB001A43CC4B1B8903
:1043A0009BB21B011A431100C94B9B8B9BB21AB2E3
:1043B0000BB213431BB29AB2C54B9A83C44B5B89B1
:1043C0009BB25A01C24B9B899BB29B011A43C04BC3
:1043D000DB899BB2DB011A43BD4B1B8A9BB21B02DC
:1043E0001A43BB4B5B8A9BB25B021A431100B84B6A
:1043F0009B8B9BB21AB20BB213431BB29AB2B44B53
:104400009A83B34B9B8A9BB29A02B14BDB8A9BB2D5
:10441000DB021A43AE4B1B8B9BB21B031A43AC4B04
:104420001B8B9BB25B031A43A94B5B8B9BB29B0319
:104430001A431100A64B9B8B9BB21AB20BB21343CB
:104440001BB29AB2A24B9A83A24B00229A83A14B31
:104450001B889BB21A009F4B5B889BB25B001A4380
:104460009C4B9B889BB29B001A439A4BDB889BB268
:10447000DB001A43974B1B899BB21B011A431100A7
:10448000944B9B8B9BB21AB20BB213431BB29AB2E2
:10449000904B9A838F4B5B899BB25A018D4B9B89C2
:1044A0009BB29B011A438B4BDB899BB2DB011A4306
:1044B000884B1B8A9BB21B021A43864B5B8A9BB2BA
:1044C0005B021A431100834B9B8B9BB21AB20BB257
:1044D00013431BB29AB27F4B9A837E4B9B8A9BB24B
:1044E0009A027C4BDB8A9BB2DB021A43794B1B8B13
:1044F0009BB21B031A43774B1B8B9BB25B031A4384
:10450000744B5B8B9BB29B031A431100714B9B8BCB
:104510009BB21AB20BB213431BB29AB26D4B9A8381
:104520006D4B00229A836C4B1B889BB21A006A4B1E
:104530005B889BB25B001A43674B9B889BB29B00D6
:104540001A43654BDB889BB2DB001A43624B1B8925
:104550009BB21B011A4311005F4B9B8B9BB21AB29B
:104560000BB213431BB29AB25B4B9A835A4B5B89D3
:104570009BB25A01584B9B899BB29B011A43564BE5
:10458000DB899BB2DB011A43534B1B8A9BB21B0294
:104590001A43514B5B8A9BB25B021A4311004E4B8C
:1045A0009B8B9BB21AB20BB213431BB29AB24A4B0B
:1045B0009A83494B9B8A9BB29A02474BDB8A9BB2F8
:1045C000DB021A43444B1B8B9BB21B031A43424B27
:1045D0001B8B9BB25B031A433F4B5B8B9BB29B03D2
:1045E0001A4311003C4B9B8B9BB21AB20BB2134384
:1045F0001BB29AB2384B9A83384B00229A83374BBE
:104600001B889BB21A00354B5B889BB25B001A4338
:10461000324B9B889BB29B001A43304BDB889BB28A
:10462000DB001A432D4B1B899BB21B011A4311005F
:104630002A4B9B8B9BB21AB20BB213431BB29AB29A
:10464000264B9A83254B5B899BB25A01234B9B894E
:104650009BB29B011A43214BDB899BB2DB011A43BE
:104660001E4B1B8A9BB21B021A431C4B5B8A9BB2DC
:104670005B021A431100194B9B8B9BB21AB20BB20F
:1046800013431BB29AB2154B9A83144B9B8A9BB26D
:104690009A02124BDB8A9BB2DB021A430F4B1B8B35
:1046A0009BB21B031A430D4B1B8B9BB25B031A433C
:1046B0000A4B5B8B9BB29B031A431100074B9B8BEE
:1046C0009BB21AB20BB20BE0E4010020FFBFFFFF68
:1046D000A0030020D4030020080400207004002060
:1046E00013431BB29AB2024B9A83C046BD4680BDAB
:1046F0007004002080B500AFD74B1B68DB06DB0FD2
:10470000DBB2002B7FD0D54B502200219952D24BE7
:10471000A622995C022081439954CF4B01229A62D0
:10472000CD4B00229A85CC4B0022DA85CA4B002261
:104730005A61C94B0022DA60C74B00221A61C64B8E
:1047400000229A63C44B00225A70C34B00229A6124
:10475000C14B0022DA61C04B00229A60BE4B00229E
:104760005A60BD4B4022BE499952BE4BBC4ADA62E8
:10477000B94B7422995C202081439954B64BF022A6
:10478000D2001A62B44BB821E022D2015A50B24B87
:10479000BC2204219950B04BB34A9A67AE4B002219
:1047A000DA67AD4B8021802212015A50AA4B842235
:1047B00000219950A84B8821802212015A50A64B03
:1047C0008C2200219950A44BB222802109019952D8
:1047D000A24B0022DA60A14B00221A629F4B0022FA
:1047E0009A629E4B00225A629C4B0022DA639B4BDA
:1047F0005C2200219952984B1A7810218A431A7032
:10480000954B00221A67FDF791FDFDF7DBFD974BF5
:104810005A69964B10218A435A61954B9B68954A79
:10482000928992B2934214D2914B9B68914A128A18
:1048300092B293420DD9904B1A8820218A431A8054
:104840008E4B1A8820218A431A808D4B00225A8071
:1048500002E08B4B01225A808A4B5B688A4AD288DD
:1048600092B2934219DA874B5B68874A528992B2B7
:10487000934212DD804B1A8802218A431A807E4BB4
:104880001A8882490A401A80814B1A8802218A4379
:104890001A807B4B00229A8002E0794B01229A8099
:1048A0006D4BDB8F9AB26C4B46215B5A9BB29A429E
:1048B00014D2694BDB8F9AB2674B48215B5A9BB28B
:1048C0009A420BD96C4B1A8804218A431A80714B87
:1048D00000225A806A4B0022DA8002E0684B0122F3
:1048E000DA805E4B5C229B5A9BB2013399B25B4BE0
:1048F0005C229952594B5C229B5A9AB296239B0197
:104900009A4204D3554B5C22962189019952534B0C
:104910005C229B5A9AB296239B019A424BD35E4BE0
:104920009B889AB2E123DB009A4233D95A4B9B8889
:104930009BB25A4A93422DD8484BDB6B5A1C474BCB
:10494000DA63454BDB6F544A928892B29A18424B15
:10495000DA67424BDB6B0F2B2DD93F4BDB6F1A090C
:104960003D4B9A673C4B9022995C0120014399543E
:104970003A4B0022DA63394B5C2200219952364BC4
:104980000022DA67344B8422002199503C4B0022EC
:104990001A8110E0314B0022DA63304B5C22002197
:1049A00099522D4B0022DA672B4B8422002199501B
:1049B000334B01221A81304B1B689B07DB0FDBB2A4
:1049C000002B00D06EE0324B1B689B07DB0FDBB285
:1049D000002B67D1284B1B685B07DB0FDBB2002B7A
:1049E00060D12F4BDB6FDB07DB0FDBB2002B59D124
:1049F000214B1B689B06DB0FDBB2002B52D11F4BF8
:104A00001B689B06DB0FDBB2002B4BD1124B9022B5
:104A10009B58DB07DB0FDBB2002B43D00F4BDB686F
:104A20005A1C0E4BDA600D4BDA6896239B019A42B2
:104A30003BD3094B01225A70074B1A7810210A43C5
:104A40001A70064B0022DA60034B9022995C012019
:104A50008143995429E0C046A00200203001002083
:104A6000E1040000002C0140DA07000000140048B7
:104A7000B8000020B0010020940200209C02002019
:104A8000A4040020E8000020CC010020FFF7FFFF75
:104A9000980200203C0400208405002097080000B4
:104AA000E4010020104B0022DA60104B1B681B074A
:104AB000DB0FDBB2012B14D10D4B1B685B07DB0F47
:104AC000DBB2002B0DD1094B1A7808218A431A70EA
:104AD000064BA0229B5A9BB21A00044B9A62FDF728
:104AE000F5FEC046BD4680BD30010020A00200207A
:104AF00094020020B0B500AFD54B1B68DB06DB0F7E
:104B0000DBB2012B60D1D24B0022DA61D04B9B6A21
:104B1000012B05D1CE4BA622995C0220014399546A
:104B2000CB4BA4229B589B03DB0FDBB2012B08D19C
:104B3000C84B50229B5A9BB2013399B2C54B5022AD
:104B40009952C54B942200219952C24B50229B5A34
:104B50009AB2C14B94215B5A9BB29A421BD3BD4B74
:104B6000502200219952BA4BA622995C022081431F
:104B70009954FDF757FCB64B7422995C022001430F
:104B80009954B34B7422995C402001439954B04B23
:104B90009C2200219952AF4B1B6AB04A934213D911
:104BA000AC4B00221A62AA4B1A7810218A431A7061
:104BB000A74B7422995C022081439954A44B002294
:104BC0009A61A34B0022DA60A14B1B681B07DB0F25
:104BD000DBB2012B0DD19E4B1A7808218A431A7043
:104BE0009B4BA0229B5A9BB21A00994B9A62FDF7ED
:104BF0008DFE974B1B68DB06DB0FDBB2002B00D072
:104C000022E1934B9B6A924AA221525A92B293425A
:104C100006D18F4BA4229B5A9BB21A008C4B9A62EE
:104C2000FDF70EFC8A4B8E4A1A628E4B1B899BB293
:104C30001A00874B1B6AD21A854B9A61844B9B6979
:104C4000B92B02DD824BB9229A61814B9B69B93342
:104C500003DA7F4BB92252429A617D4B9B697C4AB1
:104C6000B821525853431A13794BC0215A50784BEC
:104C70009B69072B0ADD764B9B69754ABC2152580C
:104C80005A43734BDB69D218714BDA61704B9B69E5
:104C900007330ADA6E4B9B696D4ABC2152585A435E
:104CA0006B4BDB69D2186A4BDA61694B9B6928331D
:104CB00002DA674B0022DA616B4B1A688C239B0087
:104CC0009A4204DB624BDB695A1E614BDA61FEF7E4
:104CD00057F85F4BC4229A585D4BDA605C4BDA6838
:104CE0005B4B9B6A591E614B8900CB5853431A1387
:104CF000574B1A61564B1A695D4B1B68D21A544BBD
:104D00005A61534B5A69524B5B6B53431A13504BC6
:104D10009A60FEF7A7F84E4B9B68DA104C4B9A60EE
:104D2000504B1B899BB21A00494BDA654D4B1B89CE
:104D30009BB2504A934202D8454B4F4ADA65444BE6
:104D4000DB6D19004D48FBF7DFF903001A00404BFB
:104D50009A65474B5B683E4AC821525853431A1321
:104D60003B4B9B6D53431B131C00DB171D00384B43
:104D70001C655D65364B1A6D5B6D354B9B68D318B2
:104D80001A00334B5A60FEF751F83D4BDB6A5B0863
:104D900019002F4BD42299502D4B5A682C4BD421FB
:104DA0005B589A4204DD2A4BD4229A58284B5A6009
:104DB000274B5A68264BD4215B585B429A4205DA4E
:104DC000234BD4229B585A42214B5A60204B5B689C
:104DD000002B0ADB1E4B5B689BB2DB189AB21C4BA4
:104DE0009A851B4B0022DA850BE0194B00229A852D
:104DF000174B5B689BB2DB189BB25B429AB2144BB9
:104E0000DA85134BDB68402B09DDFDF719FB1C4BE2
:104E10005A6C1B4B802109020A435A640AE00C4B6E
:104E20000022DA60FDF782FA154B5A6C144B1549D3
:104E30000A405A64064B9B8D9AB2114B9A63044BFD
:104E4000DB8D9AB20E4BDA63C046BD46B0BDC0469C
:104E5000A002002030010020E4010020FF760100C4
:104E60005406000084050020E80000203498000863
:104E7000780000201A0500001B0500000C60690086
:104E8000002C0140FF7FFFFF80B500AF404B1B6847
:104E90009B06DB0FDBB2002B2DD03D4B0122DA81CC
:104EA0003B4B00229A813A4B1A7802218A431A70AE
:104EB000374B1A7801218A431A70354B1A7804212E
:104EC0000A431A70324B00229A60314B00225A601A
:104ED0002F4B00225A702E4B1A7808218A431A70E1
:104EE0002B4B1A7820218A431A702A4B00229A6091
:104EF000284B00221A61FDF7B1FA274B1B68274A9D
:104F0000528892B2934210D8234B1B68234AD2880E
:104F100092B2934209D3224B1A8808218A431A80FD
:104F2000204B1A8808218A431A801B4B9B681B4A16
:104F3000928992B2934213D2174B9B68174A128AF6
:104F400092B293420CD9164B1A8820218A431A80B8
:104F5000144B1A8820218A431A80134B00225A804E
:104F60000C4B1B695A1C0B4B1A610A4B1B690F4AED
:104F700093420AD9064B01225A70054B1A78202118
:104F80000A431A70034B00221A61C046BD4680BD19
:104F90008003002030010020B8000020B001002074
:104FA000940200209C020020A40400207FBB00008B
:104FB00080B500AF4B4B1B689B06DB0FDBB2002BB1
:104FC00014D0484B1A7820218A431A70FDF756FAFC
:104FD000454BDB889BB29B089BB21A00424BDB8897
:104FE0009BB2DB089BB2D21A404B5A63404B9A6883
:104FF000F023DB009A4200D271E03D4B00229A6020
:105000003C4B9A69374B9A60364B1B685B07DB0F4A
:10501000DBB2012B1BD1334B9A68324B5B689A424F
:105020000ADB304B1A7801210A431A702D4B1A788B
:1050300002218A431A702CE02A4B1A7801218A43F4
:105040001A70284B1A7802210A431A7021E0254B66
:105050001B685B07DB0FDBB2002B1AD1214B9A6870
:10506000204B5B689A420ADB1E4B1A7801218A4367
:105070001A701C4B1A7802210A431A7009E0194B66
:105080001A7801210A431A70164B1A7802218A43B2
:105090001A70144B9A68134B5A60144B5B6BAF2B0E
:1050A00009D8104B1A7801210A431A700D4B1A784F
:1050B00002218A431A700D4B5A6BC8235B009A4237
:1050C00009D3084B1A7801218A431A70054B1A78C4
:1050D00002210A431A70FDF793FBFDF7C5FBC0469A
:1050E000BD4680BD800300208405002000200040D4
:1050F000300100207800002080B582B000AF7860D9
:1051000039607B685B69072293431A003B681A4346
:105110007B685A61C046BD4602B080BD80B582B092
:1051200000AF786039607B68DB68054A1A403B68ED
:105130001A437B68DA60C046BD4602B080BDC046F7
:10514000FFF3FFFF80B582B000AF786039607B6805
:10515000DB68042293431A003B681A437B68DA60D9
:10516000C046BD4602B080BD80B582B000AF786059
:1051700039607B689A6A3B685B035B0B1A437B6808
:105180009A62C046BD4602B080BD000080B584B0C2
:1051900000AFF860B9607A60BB68013B0B4AD35C32
:1051A0001A00FB68D3181B68094A13401900BB6832
:1051B000013B064AD35C1A00FB68D3187A680A439D
:1051C0001A60C046BD4604B080BDC046349B00088E
:1051D000EFBFFFFF80B584B000AFF860B9607A60C0
:1051E000BB68013B0B4AD35C1A00FB68D3181B68F1
:1051F000202293431900BB68013B064AD35C1A0086
:10520000FB68D3187A680A431A60C046BD4604B0EA
:1052100080BDC046349B000880B584B000AFF86004
:10522000B9607A60BB68013B0B4AD35C1A00FB682B
:10523000D3181B68402293431900BB68013B064A00
:10524000D35C1A00FB68D3187A680A431A60C04618
:10525000BD4604B080BDC046349B000880B584B014
:1052600000AFF860B9607A60BB68013B0B4AD35C61
:105270001A00FB68D3181B68802293431900BB688F
:10528000013B064AD35C1A00FB68D3187A680A43CC
:105290001A60C046BD4604B080BDC046349B0008BD
:1052A00080B584B000AFF860B9607A60BB68013B3C
:1052B0000B4AD35C1A00FB68D3181B68094A1340D9
:1052C0001900BB68013B064AD35C1A00FB68D3187F
:1052D0007A680A431A60C046BD4604B080BDC04625
:1052E000349B0008FFFCFFFF80B584B000AFF8607E
:1052F000B9607A60BB68013B0B4AD35C1A00FB685B
:10530000D3181B68094A13401900BB68013B064AC1
:10531000D35C1A00FB68D3187A680A431A60C04647
:10532000BD4604B080BDC046349B0008FFF3FFFFBC
:1053300080B584B000AFF860B9607A60BB68013BAB
:105340000B4AD35C1A00FB68D3181B68094A134048
:105350001900BB68013B064AD35C1A00FB68D318EE
:105360007A680A431A60C046BD4604B080BDC04694
:10537000349B0008FFCFFFFF80B584B000AF78609A
:10538000074B5969064B7A680A435A61044B5B69BB
:105390007A681340FB60FB68C046BD4604B080BD20
:1053A0000010024080B584B000AF7860074B996967
:1053B000064B7A680A439A61044B9B697A681340EA
:1053C000FB60FB68C046BD4604B080BD00100240D3
:1053D000B0B590B000AF30257B19180010231A002B
:1053E000002104F009F91C243B19180014231A00A9
:1053F000002104F001F93B1D180018231A000021B8
:1054000004F0FAF880239B001800FFF7CBFF8023FD
:105410001B031800FFF7B0FF80239B021800FFF763
:10542000ABFF8023DB021800FFF7A6FF3B1D012224
:105430001A603B1D03225A603B1D00221A613B1D6E
:10544000A64A1900100003F079FA3B1D02221A60E7
:105450003B1D03225A603B1D00221A613B1D9F4ADF
:105460001900100003F06AFA3B1D01221A603B1D6F
:1054700003225A603B1D00221A613A1D9023DB056E
:105480001100180003F05AFA3B1D02221A603B1D5E
:1054900003225A603B1D00221A613A1D9023DB054E
:1054A0001100180003F04AFA3B1D10221A603B1D40
:1054B00003225A603B1D00221A613A1D9023DB052E
:1054C0001100180003F03AFA3B1D20221A603B1D20
:1054D00003225A603B1D00221A613A1D9023DB050E
:1054E0001100180003F02AFA3B1D40221A603B1DF0
:1054F00003225A603B1D00221A613A1D9023DB05EE
:105500001100180003F01AFA3B1D80221A603B1D9F
:1055100003225A603B1D00221A613A1D9023DB05CD
:105520001100180003F00AFA3B1D10221A603B1DFF
:1055300003225A603B1D00221A613B1D674A190075
:10554000100003F0FBF93B1D20221A603B1D0322D3
:105550005A603B1D00221A613B1D604A1900100071
:1055600003F0ECF93B1D01221A603B1D03225A6037
:105570003B1D00221A613B1D594A1900100003F01F
:10558000DDF9584B002201211800FFF7FFFD554BB4
:10559000002201211800FFF7CBFE524B20220121EF
:1055A0001800FFF717FE4F4B002201211800FFF7EC
:1055B00033FE4C4B802201211800FFF74FFE802361
:1055C0005B0048481A000121FFF76AFE8023DB00D8
:1055D00044481A000121FFF787FE434B01211800C0
:1055E000FFF7C2FD414A404B11001800FFF7BCFD18
:1055F0003F4A3D4B11001800FFF7B6FD3D4A3A4BBC
:1056000011001800FFF7B0FD3B4A374B110018009E
:10561000FFF7AAFD394A344B11001800FFF7A4FD2B
:10562000374A314B11001800FFF79EFD354A2E4BCB
:1056300011001800FFF798FD334A2B4B110018009A
:10564000FFF792FD314A284B11001800FFF78CFD3F
:105650002F4A254B11001800FFF786FD29007B1803
:1056600000221A607B1800225A607B1800229A6080
:105670007B180022DA607B181B4A1900100002F028
:105680002DFF3B198022D2001A6021007B180022D6
:105690005A607B1800229A607B180322DA607B181C
:1056A000802252011A617B180F4A1900100002F083
:1056B0004BFF0D4B00211800FFF744FD0A4B012161
:1056C0001800FFF719FD8023DB00074A19001000BE
:1056D000FFF724FDC046BD4610B0B0BD000800482D
:1056E00000040048000002400024014002000004C1
:1056F0001000001020000014400000188000001C62
:1057000000010020000400280008002C00400038A0
:105710000080003C80B582B000AF0200FB1D1A7013
:10572000FB1D1B787F2B09D8FB1D1B781A001F233C
:105730001A40044B012191400A001A60C046BD4640
:1057400002B080BD00E100E090B583B000AF020080
:105750003960FB1D1A70FB1D1B787F2B28D82F4A40
:10576000FB1D1B785BB29B08C0339B009B58FA1D46
:105770001278110003220A40D200FF2191400A0052
:10578000D2431A4011003B689B01FF221A40FB1DC7
:105790001B78180003230340DB009A401F48FB1DC1
:1057A0001B785BB29B080A43C0339B001A5031E060
:1057B0001B4AFB1D1B7819000F230B40083B9B085D
:1057C00006339B00D31804331B68FA1D12781100AE
:1057D00003220A40D200FF2191400A00D2431A401E
:1057E00011003B689B01FF221A40FB1D1B7818002B
:1057F00003230340DB009A400948FB1D1B781C0073
:105800000F232340083B9B080A4306339B00C31821
:1058100004331A60C046BD4603B090BD00E100E00D
:1058200000ED00E080B584B000AF7860074B5969A7
:10583000064B7A680A435A61044B5B697A681340E5
:10584000FB60FB68C046BD4604B080BD001002404E
:1058500080B500AF0120FFF7E5FF00210920FFF729
:1058600073FF0920FFF756FFC046BD4680BD00000C
:1058700080B584B000AF7860074B5969064B7A68F1
:105880000A435A61044B5B697A681340FB60FB680A
:10589000C046BD4604B080BD0010024090B583B044
:1058A00000AF786039600F4A3B68FF210B4002333C
:1058B0009B009B583A68120C0F2191400A00D2437A
:1058C0001A4011003B681B0C7A689A4005483B68F7
:1058D000FF2423400A4302339B001A50C046BD46B2
:1058E00003B090BD0000014080B584B000AFF86007
:1058F000B9607A60FB681968BB685B431A001300E3
:105900005B009B18DB430B401A00BB685B43796864
:105910004B431A43FB681A60C046BD4604B080BDC5
:1059200080B584B000AFF860B9607A60FB68D96870
:10593000BB685B431A0013005B009B18DB430B4002
:105940001A00BB685B4379684B431A43FB68DA6013
:10595000C046BD4604B080BD80B582B000AF78605F
:1059600039607B683A689A62C046BD4602B080BD25
:1059700090B589B000AF18243B19180008231A000D
:10598000002103F039FE3B00180018231A00002103
:1059900003F032FE80231B031800FFF769FF80230A
:1059A0009B021800FFF764FF8023DB031800FFF75A
:1059B0005FFF8023DB021800FFF75AFF924B102194
:1059C0001800FFF7C9FF914B04211800FFF7C4FF2F
:1059D00080235A019023DB0511001800FFF7BCFF5C
:1059E0008A4B20211800FFF7B7FF80239B00874ACE
:1059F00019001000FFF7B0FF3B008022D2011A60AF
:105A00003B0000225A603B0000221A613B00804AA2
:105A10001900100002F092FF3B0010221A603B00B8
:105A200001225A603B0000229A603B000022DA60AB
:105A30003B0000221A613B00734A1900100002F07B
:105A40007DFF3B0004221A603B0001225A603B00AC
:105A500000229A603B000022DA603B0000221A61BB
:105A60003B006A4A1900100002F068FF3B008022E8
:105A700052011A603B0000225A603B0000221A616A
:105A80003B00624A1900100002F058FF3B008022E0
:105A900092011A603B0000225A603B0000221A610A
:105AA0003B005A4A1900100002F048FF3B00402218
:105AB0001A603B0000225A603B0000221A613B0042
:105AC000534A1900100002F039FF3B0080221201F6
:105AD0001A603B0000225A603B0000221A613A0023
